:0400000080313128F2
:100008007E14803120007F08F1000B1C1628270081
:10001800961F15280130F00070082000AF07270050
:1000280096130B102000911C2D28911030080319ED
:100038002D280130AB070030AC3D03302C02E830EE
:1000480003192B02031C2D28B0010130F0007008A1
:10005800B1007108FF007E10090080313328AB0120
:10006800AC01AD01AE01AF01B001B10183314D2347
:10007800B2007E102000803141282000A601A60A87
:10008800A401A501A301A701A901AA018231DE22C9
:100098008031403083310123803122008E132000CB
:1000A800AD0102308231B9228031033020002502AF
:1000B800E830031924020318DC2964000130200009
:1000C800A4070030A53D0630A1003030A000A00BE9
:1000D8006B28A10B6B2800005928AD01AD0AA601B9
:1000E800A60ADC290930823178228031003A031DC2
:1000F8009C2905302000A0002008AD00F501003043
:100108008131E921803102308231B9228031DC2904
:100118000E18BC280230A2000430A100BA30A0009A
:10012800A00B9428A10B9428A20B9428000020006F
:100138000E18BC280130A0002008B207083032028F
:10014800031CA828B201B20AAB01AC010130A0001F
:100158002008B000B1013208A0002008F5002E08E0
:100168008131E921803120000E18BC286400B728AD
:100178008E18ED280230A2000430A100BA30A00089
:10018800A00BC428A10BC428A20BC428000020007F
:100198008E18ED28023032020318D7280730A00045
:1001A8002008B200D9280130B202AB01AC010130FD
:1001B800A0002008B000B1013208A0002008F50016
:1001C8002E088131E921803120008E18ED28640045
:1001D800E82831080319DC29B10132082E06031971
:1001E800F72803309E2902309E29A70109290630E5
:1001F800A1003030A000A00BFF28A10BFF280000B1
:1002080001302000A9070030AA3D05302A02DC3061
:100218000319290203181629640020008D1BFB28E6
:10022800A701A70A270803193729A7012929063092
:10023800A1003030A000A00B1F29A10B1F2900002E
:1002480001302000A9070030AA3D05302A02DC3021
:100258000319290203183729640020008D1F1B2960
:10026800A701A70AAF01270803197E29A901AA0136
:1002780001302A022C3003192902031852290630AA
:10028800A1003030A000A00B4729A10B472900008E
:1002980001302000A9070030AA3D3C292F08A00002
:1002A8002008A80064002000280803197E290830C7
:1002B800280203187E292808A0002008AE002E086E
:1002C800320603196A29260803197C29F5012E0824
:1002D8008131E921803102302000A0002008AD00E2
:1002E800260803198C292E08A0002008B2008C29A2
:1002F80005308929F50100308131E921803102304A
:100308008231B922803105302000A0002008AD00DC
:10031800A601DC2932080319DC2908303202031847
:10032800DC293208823178228031003A0319A22967
:1003380004302000A0002008AD00DC290530200092
:10034800A0002008AD00F50100308131E92180319D
:100358000230D8292000AE01F50100308131E921B1
:10036800803102308231B9228031640020000E1CB5
:10037800BF298E18DC290230A2000430A100BA304F
:10038800A000A00BC529A10BC529A20BC5290000F7
:1003980020000E18D1296400CC298E1CCF290230E8
:1003A800A0002008AD0000308231B9228031200041
:1003B800640020002D088400063004020318DC299C
:1003C80083310435363E8200DC29F800F901FA0150
:1003D80020002D08053A03190D2A00308231B92270
:1003E80081310D2A2030FB290830FB290230F60024
:1003F8007608F900242A2030042A0830042A02301A
:10040800F6007608FA00242A01308231B9228131B7
:10041800242A7808013A0319FA29033A0319F82912
:10042800013A0319F629073A0319032A013A03196D
:10043800012A033A0319FF29013A0319082A242A31
:1004480075087806031D402A572A30302E2A0C30AA
:100458002E2A0330F6007608F904572A3030372A56
:100468000C30372A0330F6007608FA04572A03308E
:100478008231B9228131572A7508013A03192D2A88
:10048800033A03192B2A013A0319292A073A0319AF
:10049800362A013A0319342A033A0319322A013A4F
:1004A80003193B2A572A1230F6007608F200790819
:1004B800F7007708F300403083312123813106307B
:1004C800F7003030F600F60B672AF70B672A0000B2
:1004D8001330F6007608F2007A08F7007708F30080
:1004E8004030833121230800F40022008E174E305B
:1004F800F300EB30F200F20B7F2AF30B7F2A640043
:1005080020008D1F8B2A22008E1300300800220045
:100518008E131A30F300F830F200F20B912AF30B25
:10052800912A00006400F501740875020318B72ABF
:1005380022008E171030F3009430F200F20BA22A3A
:10054800F30BA22A000022008E131030F30094301F
:10055800F200F20BAD2AF30BAD2A00000130F200D5
:100568007208F507982A01300800F200CF2A200007
:100578000E118E11080020000E118E1508002000A3
:100588000E158E11080020000E158E15080020008B
:100598000E158E1108007208003A0319BB2A013A99
:1005A8000319BF2A033A0319C32A013A0319C72AB0
:1005B800CB2A0800783021009900153097002300D5
:1005C8008C018D018E0121000E148E1495170E11C9
:1005D8008E118E138D1727009413951796130B10F1
:1005E8008B157C3020009C00FA309B002100911470
:1005F8000B178B17833142230800F600F201F30131
:100608007608833121238331F201F20AF301760857
:100618008331212383311230F5007508F200F3018C
:1006280076088331212383311330F5007508F200F1
:10063800F3017608833121230800F40024001614FE
:100648001618242B740891001419282B720891008D
:1006580014192C2B730891001419302B1615161D1C
:100668000800332B803171288031762880318C281E
:1006780081318E298031F9288131AE2980302400DA
:100688009400283095002730920021000D160D1790
:040698000800013421
:020000040001F9
:02000E00DCCF45
:00000001FF
