:0400000080311B2808
:100008007E14803120007F08F1000B1C1628270081
:10001800961F14280130F00070082000AD070B105F
:100028002700961371082000FF007E100900803118
:100038001D28FA01FB01A901AA01AB01AC01AD0120
:100048007E10200081310E29F700F8281230F500C3
:100058007508F200F301F30A40308231DB22803167
:100068000930F6001C30F500F50B3828F60B382857
:1000780000001230F5007508F200F30140308231BB
:10008800DB2280315330F500F50B48280C2912305B
:10009800F5007508F2000430F6007608F3004030E9
:1000A8008231DB2280310930F6001C30F500F50B77
:1000B8005B28F60B5B2800001230F5007508F2008B
:1000C800F30140308231DB2280315330F500F50BEB
:1000D8006B280C291230F5007508F2001030F60074
:1000E8007608F30040308231DB2280310930F60097
:1000F8001C30F500F50B7E28F60B7E280000123028
:10010800F5007508F200F30140308231DB228031BE
:100118005330F500F50B8E280C291330F5007508BF
:10012800F200F301F30A40308231DB2280310930DA
:10013800F6001C30F500F50B9F28F60B9F280000F1
:100148001330F5007508F200F30140308231DB22EC
:1001580080315330F500F50BAF280C291330F5002A
:100168007508F2000430F6007608F300403082315A
:10017800DB2280310930F6001C30F500F50BC2286F
:10018800F60BC22800001330F5007508F200F301E1
:1001980040308231DB2280315330F500F50BD22814
:1001A8000C291330F5007508F2001030F6007608B7
:1001B800F30040308231DB2280310930F6001C30F8
:1001C800F500F50BE528F60BE52800001330F500DF
:1001D8007508F200F30140308231DB228031533060
:1001E800F500F50BF5280C297708013A0319D528ED
:1001F800033A0319B228013A03199128073A031957
:100208006E28013A03194B28033A03192A280C29A6
:10021800640008002000A401A801A601A701A50107
:100228008231FB2281318231BE22813140308231DC
:100238009E22813122000E136400D52901308231BB
:1002480029228131F80078082000AC006400CF2909
:10025800640020008D1BD5298231FB2281312200C8
:100268000E170230F80078082000AB00D529A60147
:10027800A701A50148295330F800F80B412901309E
:100288002000A6070030A73D05302702DC300319FF
:10029800260203185629640020008D1F3F29A50156
:1002A800A50AAD0122000E13200025080319D5293F
:1002B80064002000A601A701013027022C30031991
:1002C80026020318722964005330F800F80B6A29D3
:1002D80001302000A6070030A73D60292D08F8004E
:1002E8007808A80028080319CA290A302802031820
:1002F800CA292808083A031D87290930823167224C
:1003080081316400CF292808093A0319B32928083C
:10031800073A031998298131E321813120002808FF
:100328008031282081319B298131E321813164008A
:100338000430F9003D30F800F80BA029F90BA0298A
:1003480000320030823129228131F80078082000FB
:10035800AC002C088231672281316400CF2921301A
:10036800F9007630F800F80BB729F90BB729000027
:100378000030823129228131F80078082000AC0051
:100388002C088231672281316400CF2909308231FB
:100398006722813164008331032381312000AB015E
:1003A800AB0A640020002B08003A03192229013AFD
:1003B80003192C29033A03193B29D529D5291230C9
:1003C800F5007508F2002A30F6007608F300403090
:1003D8008231DB2281310930F6001C30F500F50B43
:1003E800F329F60BF32900001230F5007508F20026
:1003F800F30140308231DB2281315330F500F50BB7
:10040800032A1330F5007508F2002A30F600760842
:10041800F30040308231DB2281310930F6001C3094
:10042800F500F50B152AF60B152A00001330F50018
:100438007508F200F30140308231DB2281315330FC
:10044800F500F50B252A640008002000A1000E091C
:100458003F39F7007708A200A001A00AA301512A9A
:1004680004304D2A05304D2A06304D2AA301A30A2F
:10047800652A02304D2A03304D2A210803194C2AD7
:100488008131E32182310730F700770820004F2AB5
:100498000730F7007708A300652A2208013A0319F4
:1004A800342A033A0319362A063A0319382A0C3A29
:1004B80003193A2A183A03193D2A303A03193F2AF0
:1004C800412A23080800F30022000E17F930F20031
:1004D8000032F20B6C2A00320032640022000E1344
:1004E800F930F2000032F20B762A00320032640052
:1004F800F401F5017508803AF20080307202031D9C
:10050800872A7308740203189C2A22000E17F930F0
:10051800F200F20B8D2A003222000E13F930F2009D
:10052800F20B942A00320130F4070030F53D7E2AA0
:1005380064000800F600F201F30176088231DB223C
:100548008231F201F20AF30176088231DB2282312C
:100558001230F5007508F200F30176088231DB22CB
:1005680082311330F5007508F200F3017608823104
:10057800DB2208005830210099001530970023002D
:100588008C018D018E0121000E148E140E158E150E
:100598000E168E160E138D172700941395179613A3
:1005A8000B108B150B178B178231F0220800F40003
:1005B800240016141618DE2A740891001419E22A69
:1005C800720891001419E62A730891001419EA2A8E
:1005D8001615161D0800ED2A8030240094002830D6
:1005E80095002730920021000D160D1708002100F4
:1005F80019088739583899001A180800002B8730CD
:0606080021009905080025
:020000040001F9
:02000E00DCCF45
:00000001FF
